:020000040800F2
:100000001809002051080008550600085706000886
:100010005B0600085F060008630600080000000099
:10002000000000000000000000000000670600085B
:1000300069060008000000006B0600086D06000855
:100040006B0800086B0800086B0800086B080008C4
:100050006B0800086B080008E18400086B080008C2
:100060006B0800086B0800086B0800086B080008A4
:100070006B0800086B0800086B0800086B08000894
:100080006B0800086B0800086B0800086B08000884
:100090006B0800086B0800086B0800086B08000874
:1000A0006B0800086B0800086B0800086B08000864
:1000B000598600088B8500084B8400086B080008EF
:1000C0006B0800086B0800086B0800086B08000844
:1000D0006B080008BF2700083B8200086B08000877
:1000E0006B0800086B0800086B0800086B08000824
:1000F0006B0800086B0800086B0800086B08000814
:100100006B0800086B0800086B0800086B08000803
:100110006B0800086B0800086B0800086B080008F3
:100120006B0800086B0800086B0800086B080008E3
:1001300000F002F800F090F80AA090E8000C824469
:100140008344AAF10107DA4501D100F085F8AFF246
:10015000090EBAE80F0013F0010F18BFFB1A43F0A5
:1001600001031847C8B90000E8B90000103A24BFDD
:1001700078C878C1FAD8520724BF30C830C144BF0C
:1001800004680C607047000000230024002500264E
:10019000103A28BF78C1FBD8520728BF30C148BFEA
:1001A0000B6070476E2908F08E86702908F0ED8488
:1001B00066290AF06D8065290AF06A8067290AF0CD
:1001C00067806129AFF3008003681B0A28BF41F0F4
:1001D0008001692908F05E84642908F05B84752930
:1001E00008F058846F2908F08787782908F0B984C7
:1001F000E92908F02187E42908F01E87F52908F08D
:100200001B87EF2908F08487F82908F0B884036871
:10021000DB0928BF41F08001632908F0908673292B
:1002200008F09586E32909F0D981F32909F0DE81E8
:10023000002070471FB509F033FA040000200021A8
:1002400009F0D2FE401C60600020002109F0B6FEDB
:10025000E0601FBD10B510BD09F0F4F91146FFF7BD
:10026000E9FF00F03EF809F0CDFA03B4FFF7F2FF22
:1002700003BC02F049FA00001CB508F0BAFA0128E4
:100280000AD1A5A010210B46C822CDE900108C216F
:100290001E2007F0CDFE09E0A2A010210B46C822C7
:1002A000CDE900108C211E2007F0C2FE1CBD1CB53C
:1002B0009F48006850B19FA010210B467822CDE9DD
:1002C00000108C21104607F0B3FE09E09DA010211C
:1002D0000B467822CDE900108C21104607F0A8FECD
:1002E0001CBD88B000260025002702F089F94FF4D4
:1002F000A06000F0CDFA4FF4165002F014FA07F0A7
:10030000CBFE07F0FBFE03F002FE4FF4784091496C
:10031000088091A010210B46C822CDE900101E21B3
:10032000084607F085FE91A010210B46C822CDE9B2
:10033000001032211E2007F07BFE92A010210B46F8
:10034000C822CDE9001046211E2007F071FE1AE0F8
:1003500090A010210B46C822CDE900105A211E2082
:1003600007F066FE4FF4FA7002F092F98DA01021AA
:100370000B46C822CDE900105A211E2007F058FE76
:10038000642002F085F908F0CDF90028E0D189A0B9
:1003900010210B46C822CDE900105A211E2007F07B
:1003A00047FE8BA010210B46C822CDE900106E211C
:1003B0001E2007F03DFE8BA010210B46C822CDE980
:1003C0000010A0211E2007F033FE88A010210B464C
:1003D000C822CDE90010B4211E2007F029FE1F20FD
:1003E0005C490880FFF748FF95E0002007F0B2FE67
:1003F0000446032C17D108F0FCF90446FF2C27D043
:100400000CB9012000E0002004461CB97AA008F0D5
:100410002EFA02E07BA008F02AFAFFF72DFF7CA05D
:1004200008F025FA14E0012C0FD10EB9012000E0EC
:100430000020064666B94FF6FF70B023F022A021D7
:100440000090462007F048FB02E00A2002F020F965
:10045000B8F1320F26D1BEB12A4670A103A808F028
:10046000B3FA03A810210B46C822CDE90010A02141
:10047000462007F0DDFD294668A007F0CAFF681C8A
:10048000C5B2632D00DD0025FFF711FF4FF0000816
:1004900027489030006808B9012000E00020244976
:1004A000903108606248008800F4004078B34FF64D
:1004B000FF704FF4A073F022C82100901E2007F0B7
:1004C0000BFB5B48077800205A49C855092F01D01B
:1004D000082F0FD158A1574808F046FC10B900204A
:1004E0005849086058A1534808F03EFC10B9012053
:1004F000544908604F4810217723D122CDE90010DC
:10050000C8211E2007F094FD00204949088008F109
:10051000010000F0FF0868E7524F4C453A4D617307
:1005200074657200524F4C453A536C6176652000F9
:10053000100121425354413A436F6E6E65637465F6
:10054000642000005354413A446973636F6E6E65D2
:10055000637400003A000020414C49454E54454B1D
:100560002053544D3332205E5F5E000048433035E7
:1005700020424C5545544F4F544820434F4D205432
:100580004553540041544F4D40414C49454E54450C
:100590004B00000041544B2D4843303520457272CA
:1005A0006F722100506C6561736520436865636BF1
:1005B00021212100574B5F55503A524F4C45204B5B
:1005C0004559303A53454E442F53544F5000000084
:1005D00041544B2D48433035205374616E64627929
:1005E0002100000053656E643A00000052656365A7
:1005F0006976653A0000000041542B524F4C453D4E
:100600003000000041542B524F4C453D310000005A
:1006100041542B524553455400000000414C49457C
:100620004E54454B20484330352025640D0A0000C8
:1006300048000020F00100202B4C454431204F4E53
:1006400000000000888122422B4C454431204F4657
:1006500046000000704700BFFEE700BFFEE700BF96
:10066000FEE700BFFEE77047704770477047000025
:100670000CB50020019000906C48006840F4803078
:100680006A49086000BF6948006800F400300090C3
:100690000198401C0190009818B90198B0F5A06F1E
:1006A000F1D16248006800F4003010B101200090E0
:1006B00001E0002000900098012843D15C480068C8
:1006C00040F010005A4908600846006820F0030016
:1006D00008600846006840F002000860534840681F
:1006E000524948600846406848600846406840F4FF
:1006F000806048600846406820F47C1048600846E6
:10070000406840F4E81048600846006840F0807097
:10071000086000BF4548006800F000700028F9D06C
:100720004248406820F0030040494860084640685D
:1007300040F00200486000BF3C48406800F00C00F8
:100740000828F9D10CBD10B5FFF792FF10BD10B508
:100750003648006840F001003449086008464068A7
:100760003449084031494860084600683249084029
:100770002E4908600846006820F48020086008467A
:10078000406820F4FE0048604FF41F008860FFF7C7
:10079000DAFF4FF000602949086010BD10B5002154
:1007A00000200022214B5B6803F00C0121B10429D9
:1007B00006D0082928D107E0214B224C236027E0EE
:1007C0001F4B204C236023E0184B5B6803F4701030
:1007D000164B5B6803F48032022303EB904022B98E
:1007E000194B4343174C23600DE0104B5B6803F437
:1007F000003323B1144B4343124C236003E0104BEE
:100800004343104C236003E00D4B0E4C236000BFAC
:1008100000BF064B5B68C3F303130C4CE15C094B50
:100820001B68CB40074C236010BD00000010024045
:10083000002002400000FFF8FFFFF6FE08ED00E098
:1008400000127A000000002000093D000400002092
:100850000948804709480047FEE7FEE7FEE7FEE754
:10086000FEE7FEE7FEE7FEE7FEE7FEE70448054990
:10087000054A064B704700004F0700083101000889
:100880001803002018090020180500201805002072
:1008900031490143314A1160704770B5002100238E
:1008A0000F22C47804B32D4C246804F4E064C4F52A
:1008B000E064210AC1F10403CA40447804FA03F158
:1008C0008478144021430901254C0678A155047809
:1008D00004F01F050124AC4005786D11AD0005F151
:1008E000E025C5F8004109E0047804F01F05012463
:1008F000AC401C4D0678761145F8264070BD1A4A6A
:100900000A400243154B1B1F1A60704739B1134A46
:10091000121D12680243114B1B1D1A6006E00F4A9C
:10092000121D126882430D4B1B1D1A60704704286C
:1009300008D14FF0E021096941F004014FF0E022B5
:10094000116107E04FF0E021096921F004014FF047
:10095000E0221161704700000000FA050CED00E094
:1009600000E400E080E100E080FFFF1F01684FF637
:10097000FE72114001600021016041608160C16030
:100980008D49884208D18C490839496841F00F01E6
:10099000894A083A51608AE087491431884208D16F
:1009A00085490839496841F0F001834A083A5160A5
:1009B0007DE081492831884208D17F49083949685A
:1009C00041F470617C4A083A516070E07A493C31E8
:1009D000884208D178490839496841F47041764A1B
:1009E000083A516063E074495031884208D1724935
:1009F0000839496841F470216F4A083A516056E05D
:100A00006D496431884208D16B490839496841F41D
:100A10007001694A083A516049E067497831884273
:100A200008D165490839496841F07061624A083A5D
:100A300051603CE06149884206D1011F096841F0DC
:100A40000F01021F116032E05C491431884208D165
:100A50005A49091F096841F0F001584A121F1160F4
:100A600025E056492831884208D15449091F0968B0
:100A700041F47061514A121F116018E04F493C3136
:100A8000884208D14D49091F096841F470414B4A19
:100A9000121F11600BE049495031884207D1474984
:100AA000091F096841F47021444A121F1160704700
:100AB00010B50022026847F6F0739A430C6A8B68FF
:100AC00023430C6923434C6923438C692343CC693A
:100AD00023434C6A23438C6A23431A430260CB6846
:100AE00043600B6883604B68C36010BD00210160E8
:100AF00041608160C160016141618161C1610162E8
:100B000041628162704721B1026842F001020260D5
:100B100004E002684FF6FE731A40026070471AB193
:100B200003680B43036002E003688B430360704774
:100B3000416070470146486880B270470146002016
:100B4000002201F080531BB11C4B083B1A6802E0E5
:100B5000194B083B1A6802EA01030BB1012000E0BF
:100B60000020704700F0805119B11449091F086036
:100B700002E0114908394860704701460020002210
:100B800001F080531BB10D4B083B1A6802E00A4B81
:100B9000083B1A6802EA01030BB1012000E00020C3
:100BA000704700F0805119B10449091F086002E044
:100BB00001490839486070470800024008040240B3
:100BC000002044490860091D0860091D0860091DCE
:100BD000086041483F4914310860704700213D4991
:100BE0008279002A3AD00A46126803689A430B4673
:100BF0001A600A1D126803689A430B1D1A60027975
:100C000011440A6803681A430A60324A08321268BB
:100C100003689A432F4B08331A601A1D1268036841
:100C20009A432C4B0C331A604279102A0ED11A1FAA
:100C3000126803681A43274B08331A601A1D12689A
:100C400003681A43234B0C331A600DE021494279A3
:100C500011440A6803681A430A6005E002791144E6
:100C60000A6803689A430A607047002101600171B5
:100C70000C214171002181717047164910310968BA
:100C80000143144A10321160704701460020114A96
:100C9000143212680A400AB1012000E000207047B7
:100CA0000C49143108607047014600200022094BAE
:100CB0001B6803EA0102074B14331B680B4013B196
:100CC0000AB1012000E00020704702491431086099
:100CD0007047000000040140FFFF0F0010B50446FC
:100CE000CC48844208D10121042000F02DFB0021D2
:100CF000042000F029FB46E0C748844208D10121C6
:100D0000082000F021FB0021082000F01DFB3AE044
:100D1000C248844208D10121102000F015FB0021B7
:100D2000102000F011FB2EE0BD48844208D10121C3
:100D3000202000F009FB0021202000F005FB22E02C
:100D4000B848844208D10121402000F0FDFA00217A
:100D5000402000F0F9FA16E0B348844208D101219E
:100D6000802000F0F1FA0021802000F0EDFA0AE086
:100D7000AE48844207D10121801500F0E5FA002138
:100D8000A01500F0E1FA10BD10B50121084600F0F1
:100D9000DBFA0021012000F0D7FA10BD2DE9F04167
:100DA000024600250026002000230024002791F899
:100DB00003C00CF00F0591F803C00CF0100CBCF14F
:100DC000000F03D091F802C04CEA050591F800C06D
:100DD000BCF1000F31D0146800202BE04FF0010C63
:100DE0000CFA00F3B1F800C00CEA03069E4220D1D1
:100DF00083004FF00F0C0CFA03F7BC4305FA03FC19
:100E00004CEA040491F803C0BCF1280F06D14FF05E
:100E1000010C0CFA00FCC2F814C00AE091F803C0FF
:100E2000BCF1480F05D14FF0010C0CFA00FCC2F8E0
:100E300010C0401C0828D1D31460B1F800C0BCF128
:100E4000FF0F34DD546800202EE000F1080C4FF055
:100E5000010808FA0CF3B1F800C00CEA03069E4240
:100E600021D183004FF00F0C0CFA03F7BC4305FAB5
:100E700003FC4CEA040491F803C0BCF1280F05D12F
:100E800000F1080C08FA0CF8C2F8148091F803C0BD
:100E9000BCF1480F07D100F1080C4FF0010808FA27
:100EA0000CF8C2F81080401C0828CED35460BDE86E
:100EB000F0814FF6FF710180022181700421C17021
:100EC00070470246002093680B400BB1012000E000
:100ED000002070470146886880B2704702460020B3
:100EE000D3680B400BB1012000E0002070470146A1
:100EF000C86880B2704701617047416170470AB1AC
:100F0000016100E041617047C16070474FF4803279
:100F10000A43826181618261826982697047024607
:100F20000020434B18684FF68073184040EA0210C7
:100F300008433F4B186070473E49C8617047F0B5A1
:100F40000A46002300240021002500F00046B6F1E7
:100F5000004F02D1364EF16901E0354E7168C0F3A1
:100F6000034583B200F44016B6F5401F08D121F0C6
:100F700070612F4E766826F070662D4F7E6012E00D
:100F800000F48016B6F5801F06D1032606FA05F494
:100F9000A14341F0706106E0460D360103FA06F602
:100FA000B14341F0706122B1460D360103FA06F6F5
:100FB000314300F00046B6F1004F02D11C4EF16102
:100FC00001E01B4E7160F0BD30B500228B071C0F95
:100FD0000F2303FA04F2164B08338C1053F8243015
:100FE0009343134C08348D1044F8253023468C105D
:100FF00053F824308C07240F00FA04F423430C4CDC
:1010000008348D1044F8253030BD0A49DC310860C1
:101010007047000000080140000C01400010014032
:101020000014014000180140001C01400020014054
:101030000000014000002042DF48006840F001004D
:10104000DD49086008464068DC490840DA494860E4
:1010500008460068DA490840D74908600846006831
:1010600020F4802008600846406820F4FE004860B4
:101070004FF41F0088607047CF49096821F4803120
:10108000CD4A11601146096821F480211160B0F544
:10109000803F03D0B0F5802F0ED106E0C649096825
:1010A00041F48031C44A116007E0C349096841F442
:1010B000A021C14A116000E000BF00BF704710B519
:1010C00001460022002300204A11012A02D1BA4C15
:1010D000236806E0022A02D1B74C236A01E0B64C2D
:1010E000636A01F01F02012494401C400CB10120EE
:1010F00000E0002010BD38B500200090002400253D
:1011000000BF3120FFF7DBFF05460098401C009030
:101110000098B0F5A06F01D0002DF2D03120FFF77C
:10112000CEFF08B1012400E00024204638BD01466E
:101130000020A14A106820F0F80040EAC1001060C9
:101140007047A04908607047024600209A4B5868D3
:1011500020F47C1042EA01031843974B5860704713
:1011600098490866704701460020934A506820F06D
:1011700003000843506070478F48406800F00C003F
:101180007047014600208C4A506820F0F000084368
:101190005060704701460020874A506820F4E060A4
:1011A00008435060704701460020834A506820F48D
:1011B000605040EAC1005060704729B17E4A527ABF
:1011C00002437D4B5A7204E07B4A527A82437A4B47
:1011D0005A7270477B49D831086070470146002039
:1011E000754A506820F44040084350607047002121
:1011F000714A20321170704A82F82010012802D002
:1012000004280AD104E001216B4A2032117005E064
:101210000521694A2032117000E000BF00BF70470D
:101220006949086070476449096A0143624A11626A
:101230007047654944390860704730B50021002285
:10124000002400235C4D6D6805F00C0121B10429D8
:1012500005D0082923D105E05C4D056022E05B4DF7
:1012600005601FE0544D6D6805F47012524D6D68B5
:1012700005F48034022505EB92421CB9544D5543C8
:1012800005600BE04C4D6D6805F400351DB1504D07
:101290005543056002E04D4D5543056002E04B4D5E
:1012A000056000BF00BF444D6D6805F0F0010909FD
:1012B000484D6B5C0568DD4045603F4D6D6805F449
:1012C000E061090A434D6B5C4568DD4085603A4D3D
:1012D0006D6805F46051C90A3E4D6B5C4568DD40A0
:1012E000C560354D6D6805F44041890B3A4D6B5C26
:1012F000C568B5FBF3F5056130BD29B12E4A5269C9
:1013000002432D4B5A6104E02B4A526982432A4B17
:101310005A61704729B1284A92690243264B9A6163
:1013200004E0254A92698243234B9A61704729B1B0
:10133000214AD2690243204BDA6104E01E4AD26995
:1013400082431D4BDA61704729B11B4AD2680243C0
:10135000194BDA6004E0184AD2688243164BDA600F
:10136000704729B1144A12690243134B1A6104E011
:10137000114A12698243104B1A6170471249403971
:10138000086070470F49C86470470B49C8717047BF
:101390000948406A40F0807007494862704701463A
:1013A0000020054A92680A400AB1012000E00020AE
:1013B0007047014988727047001002400000FFF832
:1013C000FFFFF6FE000042428004424200127A0013
:1013D00000093D00140000202400002010B5044640
:1013E000FE48844208D10121C014FFF7ADFF00215F
:1013F000E014FFF7A9FFC4E0B4F1804F08D1012148
:101400000846FFF7AEFF00210120FFF7AAFFB8E072
:10141000F348844208D101210220FFF7A2FF0021F6
:101420000220FFF79EFFACE0EE48844208D1012184
:101430000420FFF796FF00210420FFF792FFA0E0B1
:10144000E948844208D101210820FFF78AFF0021E2
:101450000820FFF786FF94E0E448844208D1012188
:101460001020FFF77EFF00211020FFF77AFF88E0B1
:10147000DF48844208D101212020FFF772FF0021BC
:101480002020FFF76EFF7CE0DA48844208D101217A
:101490004014FFF759FF00216014FFF755FF70E07B
:1014A000D548844209D10121C804FFF74DFF00212E
:1014B0004FF40020FFF748FF63E0D048844209D191
:1014C00001210805FFF740FF00214FF48010FFF7CE
:1014D0003BFF56E0CA48844209D101214805FFF785
:1014E00033FF00214FF40010FFF72EFF49E0C548FD
:1014F000844208D101214020FFF733FF0021402022
:10150000FFF72FFF3DE0C048844208D10121802031
:10151000FFF727FF00218020FFF723FF31E0BB48C2
:10152000844208D101218015FFF71BFF0021A0157F
:10153000FFF717FF25E0B648844209D101210804CE
:10154000FFF702FF00214FF48030FFF7FDFE18E0A7
:10155000B048844209D101214804FFF7F5FE00217B
:101560004FF40030FFF7F0FE0BE0AB48844208D1A7
:1015700001218804FFF7E8FE00214FF48020FFF7E7
:10158000E3FE10BD00220288944B98420ED0994B86
:1015900098420BD0B0F1804F08D0914B984205D0C3
:1015A000904B984202D0904B984204D14FF68F73E3
:1015B0001A404B881A438D4B984207D08C4B984267
:1015C00004D04FF6FF431A40CB881A4302808B8821
:1015D00083850B880385814B98420BD0854B9842BD
:1015E00008D08B4B984205D08A4B984202D08A4B48
:1015F000984201D10B7A038601238382704770B52C
:10160000002400220023058C4FF6FE763540058429
:10161000028C8388048B4FF68F752C40B51E2C40AE
:101620000D882C43751E2A400D892A434D882A4374
:101630006A4DA8420BD06F4DA84208D0744DA84205
:1016400005D0744DA84202D0734DA84213D14FF675
:10165000F7752A404D892A434FF6FB752A408D883D
:101660002A434FF6FF652B404FF6FF552B408D89DF
:101670002B43CD892B4383800483CD8885860284C8
:1016800070BD70B5002400220023058C4FF6EF7664
:1016900035400584028C8388048B48F6FF752C4006
:1016A0004FF6FF452C400D884FF6FF7606EA0525DC
:1016B0002C434FF6DF752A400D8906EA05152A43AB
:1016C0004D8806EA05152A43444DA84202D0494DEB
:1016D000A8421DD14FF67F752A404D894FF6FF76FF
:1016E00006EA05152A434FF6BF752A408D8806EA9B
:1016F00005152A434FF6FF352B404FF2FF752B405F
:101700008D8906EA85052B43CD8906EA85052B439D
:1017100083800483CD880587028470BD70B5002462
:1017200000220023058C4FF6FF6635400584028CAD
:101730008388848B4FF68F752C404FF6FC752C40B8
:101740000D882C434FF6FF552A400D894FF6FF7642
:1017500006EA05252A434D8806EA05252A431F4D3A
:10176000A84202D0234DA8421DD14FF2FF752A4056
:101770004D894FF6FF7606EA05252A434FF6FF35D9
:101780002A408D8806EA05252A434EF6FF752B4030
:101790004DF6FF752B408D8906EA05152B43CD8943
:1017A00006EA05152B4383808483CD8885870284D0
:1017B00070BD70B5002200230024058C4EF6FF7624
:1017C00035400584038C8488828B48F6FF752A4057
:1017D0004FF6FF452A400D8820E00000002C014014
:1017E0000004004000080040000C004000100040D1
:1017F0000014004000340140004C01400050014002
:101800000054014000180040001C0040002000402F
:101810000040014000440140004801404FF6FF767F
:1018200006EA05252A434DF6FF752B400D8906EA89
:1018300005352B434D8806EA05352B43FA4DA84262
:1018400002D0FA4DA84208D14BF6FF752C408D8985
:101850004FF6FF7606EA85152C4384808283CD8877
:10186000A0F84050038470BD828B4FF2FF331A40C2
:101870008283828B4FF6FF7303EA01231A4382832C
:101880007047F0B50C461546002200210026078C53
:101890004EF6FF7C07EA0C070784828B018C4FF61B
:1018A000FF7707EA043640F6FF473A404FF6FF77E6
:1018B00007EA05273A434FF6FF7707EA03373A432B
:1018C000D94FB8420ED0D94FB8420BD0B0F1804FAB
:1018D00008D0D74FB84205D0D64FB84202D0D64F25
:1018E000B84206D14DF6FF77394046F48057394368
:1018F00005E047F6FF57394044F480573943828367
:101900000184F0BD828B4FF6F3731A408283828B81
:101910000A4382837047F0B50C4615460022002129
:101920000026078C4FF6FF6C07EA0C070784828BB2
:10193000018C4FF6FF7707EA04264FF60C773A4002
:101940004FF6FF7707EA03172F433A43B64FB842E3
:101950000ED0B64FB8420BD0B0F1804F08D0B44F84
:10196000B84205D0B34FB84202D0B34FB84206D107
:101970004FF6FF57394046F48077394305E04FF280
:10198000FF57394044F48077394382830184F0BDA6
:10199000028B4FF2FF331A400283028B4FF6FF7324
:1019A00003EA01231A4302837047F0B50C4615463B
:1019B000002200210026078C4FF6EF7C07EA0C0777
:1019C0000784028B018C4FF6FF7707EA041640F676
:1019D000FF473A404FF6FF7707EA03373A434FF69F
:1019E000FF7707EA05273A438F4FB8420ED08F4F53
:1019F000B8420BD0B0F1804F08D08D4FB84205D01F
:101A00008C4FB84202D08C4FB84206D14FF6DF77E8
:101A1000394046F01007394305E04FF65F7739400B
:101A200044F01007394302830184F0BD028B4FF666
:101A3000F3731A400283028B0A4302837047F0B5A6
:101A40000C46154600220021068C4FF6FE773E40DC
:101A50000684028B018C4FF60C7632407E1C06EA1F
:101A600003162E433243704EB0420ED06F4EB0423A
:101A70000BD0B0F1804F08D06D4EB04205D06D4E06
:101A8000B04202D06C4EB04206D14FF6FD763140E6
:101A900044F00106314305E04FF6F576314044F05D
:101AA0000106314302830184F0BD70B505460C4642
:101AB0005D4885420ED05D4885420BD0B5F1804F20
:101AC00008D05B48854205D05A48854202D05A4822
:101AD000854200D100E000BF208850B92389A28848
:101AE00061882846FFF7ABFFE1882846FFF79EFF95
:101AF00025E0208804280AD12389A2886188284605
:101B0000FFF753FFE1882846FFF742FF17E02088E0
:101B100008280AD12389A28861882846FFF7FBFE9E
:101B2000E1882846FFF7EEFE09E02389A288618854
:101B30002846FFF7A6FEE1882846FFF795FE70BD10
:101B40002DE9F04105460C4600260127608808B9BA
:101B5000022600E00026A088012801D1022700E02B
:101B600001272088A0B92389A28861882846FFF729
:101B700066FFE1882846FFF759FF23893A46314638
:101B80002846FFF712FFE1882846FFF701FF13E020
:101B90002389A28861882846FFF707FFE188284645
:101BA000FFF7F6FE23893A4631462846FFF747FFFE
:101BB000E1882846FFF73AFFBDE8F0810A884B88A4
:101BC0001A438B881A43CB881A430B891A434B89D3
:101BD0001A438B891A43A0F8442070474FF6FF71CF
:101BE000818000210180C180418001727047002105
:101BF000018041808180C180018141818181C181D9
:101C00007047002101804180012181800021C18035
:101C1000018170470021018041808180C180018164
:101C20004181818170470000002C01400034014057
:101C30000004004000080040000C004021B1028870
:101C400042F00102028004E002884FF6FE731A405F
:101C50000280704731B1B0F8442042F40042A0F84D
:101C6000442005E0B0F84420C2F30E02A0F844205E
:101C700070471AB183890B43838102E083898B43C8
:101C8000838170478182704741EA0203A0F848309F
:101C900070471AB183890B43838102E083898B43A8
:101CA0008381704701894FF6F872114001817047B6
:101CB0000A46002101894FF68F73194011430181B3
:101CC000704730B504460D4629462046FFF7F0FF21
:101CD000208940F00700208130BD2DE9F041044605
:101CE0000D4616461F46602D06D13B460122314661
:101CF0002046FFF75AFE05E03B46012231462046CA
:101D0000FFF79DFE29462046FFF7D2FF208940F0CD
:101D100007002081BDE8F08130B50C460021018923
:101D2000C9B24FF6FF7505EA03251543254329433C
:101D3000018130BD2DE9F04105460E461746984613
:101D4000002443463A4631462846FFF7E5FF2C89F2
:101D50004FF6F870044044F007044FF68F700440CB
:101D600044F070042C81BDE8F081F0B504460D46C6
:101D700016461F463B46324629462046FFF7CCFF13
:101D8000208940F480402081F0BD01858282704727
:101D90000A46002101884FF68F73194011430180D4
:101DA0007047F0B50C4615461E4600210022002360
:101DB0000189028B038C4FF6F877394021434FF6A7
:101DC000FC473A4040F201173A434FF6DD773B407B
:101DD0004FF6FF7707EA06172F433B430181028343
:101DE0000384F0BD0A460021018B4FF68F73194022
:101DF0001143018370470A460021018B48F6FF73A7
:101E000019404FF6FF7303EA022319430183704719
:101E10000A460021818B4FF68F731940114381834D
:101E200070470A460021818B48F6FF7319404FF630
:101E3000FF7303EA022319438183704721B10288AB
:101E400042F08002028004E002884FF67F731A405D
:101E50000280704721B1828842F00402828004E04F
:101E600082884FF6FB731A408280704721B18288C6
:101E700042F00802828004E082884FF6F7731A402D
:101E80008280704721B1828842F00102828004E0A2
:101E900082884FF6FE731A40828070470A460021FE
:101EA000018B4FF6F77319401143018370470A46BF
:101EB0000021018B4FF2FF7319404FF6FF7303EAC5
:101EC00002231943018370470A460021818B4FF694
:101ED000F77319401143818370470A460021818BB3
:101EE0004FF2FF7319404FF6FF7303EA02231943C1
:101EF000818370470A460021018B4FF6FB7319401E
:101F00001143018370470A460021018B4FF6FF33CE
:101F100019404FF6FF7303EA022319430183704708
:101F20000A460021818B4FF6FB73194011438183D0
:101F300070470A460021818B4FF6FF3319404FF658
:101F4000FF7303EA02231943818370470A46002185
:101F5000018B4FF67F7319401143018370470A4686
:101F60000021018BC1F30E014FF6FF7303EA022338
:101F70001943018370470A460021818B4FF67F7316
:101F800019401143818370470A460021818BC1F3B8
:101F90000E014FF6FF7303EA022319438183704752
:101FA0000A460021018C4FF6FD731940114301844C
:101FB00070470A460021018C4FF6F7731940114310
:101FC000018470470A460021018C4FF6DF731940E7
:101FD0004FF6FF7303EA02131943018470470A4660
:101FE0000021018C4FF67F7319404FF6FF7303EA0F
:101FF00002131943018470470A460021018C4FF6F1
:10200000FF5319404FF6FF7303EA0223194301847B
:1020100070470A460021018C4FF2FF7319404FF6BA
:10202000FF7303EA02231943018470470A46002123
:10203000018C4DF6FF7319404FF6FF7303EA02332C
:1020400019430184704730B5002301248C40A3B2AA
:10205000048C9C430484048C02FA01F5ADB22C4339
:10206000048430BD30B5002304248C40A3B2048C1A
:102070009C430484048C02FA01F5ADB22C43048421
:1020800030BD70B5034600200024184618300125E5
:102090008D40ACB21D8CA5431D8409B1082909D11E
:1020A00000EB6100056825F07005056005681543C3
:1020B00005600EE00D1FC5F34E052844056825F4A4
:1020C000E045056005684FF6FF7606EA02263543CF
:1020D000056070BD21B1028842F00202028004E076
:1020E00002884FF6FD731A400280704721B10288C2
:1020F00042F00402028004E002884FF6FB731A40AB
:102100000280704721B1828842F08002828004E020
:1021100082884FF67F731A408280704702884FF69C
:10212000F7731A40028002880A430280704782884F
:102130004FF68F731A40828082880A4382807047EC
:1021400002894FF6F8731A40028102890A4302811C
:10215000704702894FF67F731A40028102890A4351
:1021600002817047818470478185704781867047FE
:102170000187704781877047A0F840107047028838
:102180004FF6FF431A40028002880A4302807047DC
:102190000146888E70470146088F70470146888F38
:1021A00070470146B1F8400070470146888C70477F
:1021B0000146088D704702460020138A0B400BB180
:1021C000012000E000207047CA430282704730B50A
:1021D0000246002000230024158A05EA01039589A0
:1021E00005EA010413B10CB1012000E0002030BD6C
:1021F000CA4302827047000010B50446FB4884427F
:1022000009D101218803FFF79FF800214FF4804096
:10221000FFF79AF832E0F648844209D101214804D8
:10222000FFF79FF800214FF40030FFF79AF825E000
:10223000F048844209D101218804FFF792F8002177
:102240004FF48020FFF78DF818E0EB48844209D165
:102250000121C804FFF785F800214FF40020FFF7A3
:1022600080F80BE0E548844208D101210805FFF71A
:1022700078F800214FF48010FFF773F810BD2DE9B6
:10228000F04786B005460E460024A24600BFA14690
:102290000027B08900B100BF2F462C8A4CF6FF7092
:1022A0000440F08804432C82AC894EF6F3100440BD
:1022B000B08831890843718908430443AC81AC8AF2
:1022C0004FF6FF400440B0890443AC8201A8FEF7FA
:1022D000B4FFC648874202D1DDF810A001E0DDF866
:1022E0000CA0A88900F4004040B10AEBCA0000EB42
:1022F0000A1031684900B0FBF1F807E00AEBCA00A8
:1023000000EB0A1031688900B0FBF1F86420B8FBDB
:10231000F0F004012009642101FB1089A88900F470
:10232000004040B1322000EBC900B0FBF1F000F0FA
:102330000700044308E0322000EB09106421B0FBE1
:10234000F1F000F00F0004432C8106B0BDE8F087E7
:102350004FF41651016000218180C18001810C2160
:10236000418100218181704710B502460020108A0A
:102370004FF2FF0318400B884C8823438C8823437B
:10238000CC8823431843108210BD00210180418076
:102390008180C180704721B1828942F400528281DC
:1023A00004E082894DF6FF731A4082817047F0B5D0
:1023B0000346002400260025002040F66A17B94293
:1023C00000D100BF1846C1F3421401F01F060127D7
:1023D00007FA06F5012C01D10C3004E0022C01D1E2
:1023E000103000E014301AB107682F43076002E094
:1023F0000768AF430760F0BD1AB1838A0B4383823D
:1024000002E0838A8B4383827047028A4FF6F0731F
:102410001A400282028A0A430282704782894FF27E
:10242000FF731A40828182890A438281704721B1F9
:10243000828942F00202828104E082894FF6FD73B4
:102440001A4082817047028A4FF6DF731A40028277
:10245000028A0A430282704721B1028A42F4804212
:10246000028204E0028A4BF6FF731A400282704730
:10247000C1F308028280704701468888C0F30800D3
:102480007047818941F0010181817047028BD2B28E
:102490000283028B42EA012202837047028B02F41C
:1024A0007F420283028B0A430283704721B1828AF2
:1024B00042F02002828204E0828A4FF6DF731A40E3
:1024C0008282704721B1828A42F01002828204E047
:1024D000828A4FF6EF731A408282704721B1828A56
:1024E00042F00802828204E0828A4FF6F7731A40B3
:1024F0008282704721B1828942F40042828103E0E6
:102500008289C2F30E028281704721B1828A42F42D
:102510000062828204E0828A4FF2FF731A40828254
:102520007047828A4FF6FB731A408282828A0A437E
:102530008282704721B1828A42F00202828204E0E4
:10254000828A4FF6FD731A4082827047024600204D
:10255000B1F5007F00D100BF13880B400BB1012003
:1025600000E00020704701F40072B2F5007F00D156
:1025700000BFCA430280704770B5024600240023A2
:102580000025002040F66A16B14200D100BFC1F319
:10259000421501F01F03012606FA03F3012D02D1B3
:1025A0009689334006E0022D02D1168A334001E0BD
:1025B000968A33400C12012606FA04F41688344039
:1025C00013B10CB1012000E0002070BD10B5002255
:1025D000002340F66A14A14200D100BF0A12012470
:1025E0009440A3B2DC43048010BD000000380140D9
:1025F0000044004000480040004C004000500040B3
:1026000010B56FF00400FEF792F9394800683949B7
:10261000B0FBF1F0384908700846007800EB400143
:10262000C1EBC0104FF6FF7101EAC00033490880CA
:1026300010BD70B505463248006830B9FFF7E0FFBD
:102640002F480068401C2E4908602B4800786843DA
:102650004FF0E0214861002088610846006940F0A1
:102660000100086100BF4FF0E020046904F00100A0
:1026700018B104F480300028F5D04FF0E020006954
:1026800020F001004FF0E02108610020886170BD5A
:1026900070B505461B48006830B9FFF7B1FF19480F
:1026A0000068401C174908601448008868434FF0D0
:1026B000E0214861002088610846006940F001007F
:1026C000086100BF4FF0E020046904F0010018B178
:1026D00004F480300028F5D04FF0E020006920F0AD
:1026E00001004FF0E02108610020886170BD00000A
:1026F0000000002000127A00280000202A0000209C
:102700002C00002030000020014600BF704700BFB1
:10271000494A128802F04002002AF9D0C2B2464B60
:102720001B1D1A80704710B586B00446012144F283
:102730000400FEF7EFFD4FF40070ADF81400032025
:102740008DF8160018208DF8170005A93B48FEF7F4
:1027500025FB4FF48060ADF8140004208DF81700BD
:1027600005A93648FEF71AFB25208DF80000032046
:102770008DF801008DF8020001208DF803006846F5
:10278000FEF78BF801940020ADF80800ADF80A00C0
:10279000ADF80C00ADF810000C20ADF80E0001A94A
:1027A0002548FFF76CFD012240F225512248FFF732
:1027B000FEFD01212048FFF7EEFD06B010BD10B56B
:1027C00040F225511C48FFF7D7FE10B31A48FFF717
:1027D00053FEC4B21A48008800F40040C8B9184833
:1027E000008800F4804060B10A2C03D00020144916
:1027F000088020E01248008840F40040104908801A
:1028000019E00D2C06D10E48008840F480400C4998
:10281000088010E00A480088C0F30D0009490C54F4
:1028200007480088401C0649088008460088C728D9
:1028300001DD0020088010BD003801400008014083
:1028400038000020500000204FF48071FD4A516193
:1028500049005161FC490860802151611161890082
:10286000116170474FF48071F64A1161490051615E
:10287000F54908608021516111618900116170473B
:1028800010B54FF08830F0490C390860091D086018
:102890000020ED4908608815EA4908614000486158
:1028A00040204861E948808848F68911884202D171
:1028B0000220FFF7BEFEE448001F006884B24020FB
:1028C000E0490861C00008614FF03330DE490C393F
:1028D0000860091D08604FF6FF70DB49086020465C
:1028E00010BD10B504460B462046FFF7ADFF4FF470
:1028F0008070D449086140004861D348036080205B
:10290000486108618000086110BD10B5044620468A
:10291000FFF79AFFFFF7B4FF10BD00B5CB49088958
:10292000FFF792FF00BD4FF48071C64A1161490064
:102930005161C549086080215161116189001161AF
:10294000704730B5014601F01F04C1F34513CA0AB0
:10295000E50205EB43151544A8B230BD00BF0100E8
:10296000A0F10102D0B2FAD1704730B504460D464D
:10297000B648808849F24131884205D0B348808802
:1029800045F21031884240D1B0494889FFF75CFFD9
:102990004FF48070AB490861400048612012AA4999
:1029A00008608020A74948610861800008614010E4
:1029B000086140004861E0B2A34908608020A14955
:1029C0004861086180000861A0498889FFF73CFFE1
:1029D0004FF480709B4908614000486128129A4971
:1029E00008608020974948610861800008614010B4
:1029F000086140004861E8B293490860802091492D
:102A000048610861800008618CE19048808846F642
:102A10000401884249D18D488079012804D18B482E
:102A20000088401E001B84B288494889FFF70CFFCC
:102A30004FF4807083490861400048612012824948
:102A4000086080207F49486108618000086140106B
:102A5000086140004861E0B27B4908608020794904
:102A6000486108618000086178498889FFF7ECFEB9
:102A70004FF4807073490861400048612812724920
:102A8000086080206F49486108618000086140103B
:102A9000086140004861E8B26B49086080206949DC
:102AA00048610861800008613CE16848808841F61F
:102AB000631188427ED16548807900283FD1634800
:102AC0000088401E001B84B260494889FFF7BCFEA5
:102AD0004FF480705B4908614000486100205A490A
:102AE00008608020574948610861800008614010F3
:102AF0000861400048610020534908608020514926
:102B00004861086180000861401008614000486128
:102B100020124D49086080204A49486108618000C0
:102B200008614010086140004861E0B24649086011
:102B300080204449486108618000086141E04349C0
:102B40004889FFF781FE4FF480703E4908614000DC
:102B5000486120123C49086080203A494861086178
:102B6000800008614010086140004861E0B23649C9
:102B70000860802033494861086180000861401086
:102B800008614000486131480088401E00122E490B
:102B9000086080202B49486108618000086140106E
:102BA00008614000486129480078401EC0B22649AB
:102BB000086000E04CE08020224948610861800004
:102BC000086122498889FFF73FFE4FF480701D4954
:102BD00008614000486128121B490860802019499B
:102BE0004861086180000861401008614000486148
:102BF000E8B21549086080201249486108618000E8
:102C00000861401008614000486110484088401E3B
:102C100000120D49086080200A494861086180005F
:102C20000861401008614000486108488078401EF3
:102C3000C0B20549086080200249486108618000EF
:102C400008616FE0001001400C0C014018010020E9
:102C5000F748808845F21051884250D1F44948899C
:102C6000FFF7F2FD4FF48070F249086140004861BF
:102C70002012F14908608020EE4948610861800017
:102C80000861EB494989491C88B2FFF7DDFD4FF423
:102C90008070E849086140004861E0B2E649086098
:102CA0008020E4494861086180000861E049888922
:102CB000FFF7CAFD4FF48070DE49086140004861AB
:102CC0002812DD4908608020DA49486108618000E7
:102CD0000861D7498989491C88B2FFF7B5FD4FF4CF
:102CE0008070D449086140004861E8B2D249086068
:102CF0008020D049486108618000086112E0CC481A
:102D00008079012804D1CA480088401E001B84B283
:102D1000C74948892146FFF7E4FDC5498889294606
:102D2000FFF7DFFD30BD2DE9F04105460E46C048F6
:102D30000088A84203DDBE484088B04202DC002083
:102D4000BDE8F08131462846FFF70FFEB84880887D
:102D500049F24131884211D0B548808846F60401D5
:102D600088420BD0B248808845F21031884205D0A5
:102D7000AF48808841F66311884203D12E20FFF7C7
:102D800063FD0DE0AA48808845F21051884204D1C5
:102D90004FF43850FFF758FD02E02220FFF754FDB2
:102DA0004FF08830A4490C390860091D08604FF6BF
:102DB000FF70A149086088159E490861400048617C
:102DC000402048610220FFF7C9FD9B48001F0068B2
:102DD00084B24020974908619548808841F6631184
:102DE000884210D14FF40070924908614FF033309F
:102DF00091490C390860091D08604FF6FF708E4933
:102E0000086020469CE740208A4948610220FFF77D
:102E1000A5FD8948001F006884B2402085490861EB
:102E20008348808849F2413188420BD080488088AD
:102E300045F21031884205D07D48808845F2105116
:102E4000884213D140207B4948610220FFF786FD6C
:102E50007948001F00681FFA80F840207549086112
:102E6000E7B24FF6FF7000EA07270DE07048808850
:102E700046F60401884207D140206E494861086146
:102E80006D48001F006884B24FF400706949086102
:102E90004FF0333068490C390860091D08604FF65F
:102EA000FF70654908606248808849F22531884290
:102EB00016D05F48808844F23551884210D05C4873
:102EC0008088091F88420BD05948808848F68911AC
:102ED000884205D0564880884BF20551884201D17E
:102EE00020462DE75248808849F2413188420BD074
:102EF0004F48808845F21031884205D04C48808880
:102F000045F21051884207D1E012C002B91240EADE
:102F1000411040EAE82013E72046FFF712FD0FE7D3
:102F200000B54348808849F24131884211D0404879
:102F3000808846F6040188420BD03D48808845F2DF
:102F40001031884205D03A48808841F663118842A2
:102F500003D12920FFF778FC0FE03548808845F23F
:102F60001051884204D14FF42450FFF76DFC04E067
:102F700040F273110720FFF7B4FC00BD00B52C48E8
:102F8000808849F24131884211D02948808846F62C
:102F9000040188420BD02648808845F210318842CF
:102FA00005D02348808841F66311884203D1282048
:102FB000FFF74AFC0EE01E48808845F21051884217
:102FC00004D14FF42050FFF73FFC03E0002107201D
:102FD000FFF787FC00BDF0B5054600240027144824
:102FE000807901280BD11248808846F60401884276
:102FF00005D00F48808841F66311884208D10C48FB
:10300000807920BB0A48808841F6631188421ED12E
:10301000082D1BD2DFE805F00406080A1214161862
:10302000062513E0072511E004250FE005250DE036
:1030300018010020001001400C0C0140012505E0A2
:10304000002503E0032501E0022500BF00BFF8488A
:10305000808849F24131884217D0F548808846F689
:103060000401884211D0F248808845F2103188422C
:103070000BD0EF48808845F21051884205D0EC48CB
:10308000808841F6631188427ED1082D1CD2DFE88A
:1030900005F00406090C0F12151800BF14E044F0E7
:1030A000800411E044F040040EE044F0C0040BE062
:1030B00044F0200408E044F0600405E044F0A0047B
:1030C00002E044F0E00400BF00BFD948808845F228
:1030D0001051884202D14FF4585700E03627D448A7
:1030E000808845F2103188420DD0D148808845F261
:1030F0001051884207D0CE48808841F6631188423B
:1031000001D044F00804CA48808846F60401884289
:1031100001D144F0020421463846FFF7E2FBC448DF
:10312000808841F6631188421DD004F0200068B108
:10313000BF480088BE494988884214DABC480688DE
:103140004088BB490880084646800CE0B8480088A3
:10315000B7494988884206DDB54806884088B449A1
:10316000088008464680B248808845F2105188425F
:103170007ED1AF494889FFF767FB4FF48070AD49B6
:1031800008614000486100E029E10020AA49086088
:103190008020A8494861086180000861A4494989E4
:1031A000491C88B2FFF750FB4FF48070A1490861B9
:1031B000400048610020A049086080209D49486186
:1031C0000861800008619A494989891C88B2FFF723
:1031D0003BFB4FF480709749086140004861944878
:1031E0000088401E0012944908608020914948617F
:1031F0000861800008618E494989C91C88B2FFF7BF
:1032000023FB4FF480708B49086140004861884877
:103210000078401EC0B28849086080208549486116
:1032200008618000086182498889FFF70DFB4FF42F
:103230008070804908614000486100207E49086034
:1032400080207C494861086180000861784989894B
:10325000491C88B2FFF7F8FA4FF48070754908618D
:10326000400048610020744908608020714900E0F6
:1032700034E048610861800008616D498989891CD2
:1032800088B2FFF7E1FA4FF480706A4908614000A4
:10329000486167484088401E0012674908608020E6
:1032A0006449486108618000086161498989C91CD5
:1032B00088B2FFF7C9FA4FF480705E490861400098
:1032C00048615B488078401EC0B25B49086080203E
:1032D00058494861086180000861A7E0544948895D
:1032E000FFF7B2FA4FF4807052490861400048611C
:1032F00000205149086080204E49486108618000E3
:103300000861401008614000486100204A49086097
:1033100080204849486108618000086140100861C8
:103320004000486142480088401E0012424908603F
:1033300080204049486108618000086140100861B0
:10334000400048613A480078401EC0B23A490860DF
:1033500080203849486108618000086134498889C3
:10336000FFF772FA4FF480703249086140004861FB
:1033700000203149086080202E49486108618000A2
:103380000861401008614000486100202A49086037
:103390008020284948610861800008614010086168
:1033A0004000486122484088401E001222490860BF
:1033B0008020204948610861800008614010086150
:1033C000400048611A488078401EC0B21A4908601F
:1033D00080201849486108618000086126E0082DB6
:1033E0001CD2DFE805F004070A0D0F12151844F08F
:1033F000300413E044F0100410E044F020040DE029
:1034000000BF0BE044F0380408E044F0280405E075
:1034100044F0180402E044F0080400BF00BF032792
:1034200044F4805421463846FFF75BFAF0BD0000B3
:1034300018010020001001400C0C014030B504467A
:103440000D4629462046FFF790FAFFF766FA4FF43B
:103450008070FE49086140004861FD480088FD49D0
:1034600008608020F949486108618000086130BD2A
:1034700070B504460D461646F748808849F241313A
:10348000884205D0F448808845F21031884240D106
:10349000F1494889FFF7D8F94FF48070EB4908618A
:1034A000400048612012EB4908608020E7494861EC
:1034B0000861800008614010086140004861E0B286
:1034C000E44908608020E1494861086180000861A2
:1034D000E1498889FFF7B8F94FF48070DB4908614A
:1034E000400048612812DB4908608020D7494861C4
:1034F0000861800008614010086140004861E8B23E
:10350000D44908608020D149486108618000086181
:103510003DE1D148808845F21051884250D1CE49D2
:103520004889FFF791F94FF48070C849086140005D
:1035300048612012C74908608020C4494861086179
:1035400080000861C4494989491C88B2FFF77CF9A9
:103550004FF48070BD49086140004861E0B2BD4948
:1035600008608020B9494861086180000861BA4953
:103570008889FFF769F94FF48070B4490861400009
:1035800048612812B34908608020B0494861086149
:1035900080000861B0498989491C88B2FFF754F955
:1035A0004FF48070A949086140004861E8B2A94918
:1035B00008608020A5494861086180000861E6E054
:1035C000A548808841F6631188427DD1A248807960
:1035D00020B9A1480088401E001B84B29E4948893A
:1035E000FFF732F94FF48070984908614000486154
:1035F0002012984908608020944948610861800041
:1036000008614010086140004861E0B291490860DB
:1036100080208E494861086180000861401008617F
:103620004000486120128B4908608020874948612A
:103630000861800008614010086140004861E0B204
:1036400084490860802081494861086180000861E0
:1036500081498889FFF7F8F84FF480707B49086149
:103660004000486128127B49086080207749486102
:103670000861800008614010086140004861E8B2BC
:1036800074490860802071494861086180000861C0
:10369000401008614000486128126E49086080208F
:1036A0006A49486108618000086140100861400073
:1036B0004861E8B267490860802064494861086150
:1036C0008000086163E0FFE76348808846F60401F4
:1036D000884249D160488079012804D15E48008839
:1036E000401E001B84B25C494889FFF7ADF84FF4D7
:1036F00080705649086140004861201255490860B1
:1037000080205249486108618000086140100861CA
:1037100040004861E0B24F49086080204B49486151
:103720000861800008614C498889FFF78DF84FF4E3
:103730008070464908614000486128124549086088
:10374000802042494861086180000861401008619A
:1037500040004861E8B23F49086080203B49486129
:1037600008618000086112E03B488079012804D19B
:1037700039480088401E001B84B2374948892146D9
:10378000FFF7AFF8344988892946FFF7AAF84FF4C4
:1037900080702E494861400048612F4800892D49BA
:1037A0000860802029494861086180000861401054
:1037B0000861400048612748066080204861086130
:1037C0008000086170BD2DE9F0410446BE20FFF77E
:1037D0003BF84FF480701D490861400048610520A6
:1037E0001C4908608020194948610861800008610F
:1037F0004010086140004861204606F038FC05464C
:103800004FF06632154B06F045FC074606F002FC09
:103810001049086080200D494861086180000861F6
:10382000401008614000486101200A49086080207A
:103830000649486108618000086140100861400045
:103840004861FF2003490860802009E00010014022
:103850003A0000200C0C014018010020666604406C
:10386000FE4948610861800008614010086140001D
:1038700048610020FA4908608020F84948610861E1
:103880008000086140100861400048610020F44950
:1038900008608020F1494861086180000861BDE846
:1038A000F08110B50446002C66D1EE498871F020F5
:1038B00008804FF4A07048800846808849F2413162
:1038C00088420BD0E748808846F60401884205D03C
:1038D000E448808845F2103188421AD12C20E14911
:1038E00008812A2048812B2088810846808846F656
:1038F0000401884205D0DB48808845F210318842B7
:1039000006D14FF4A070D74908804FF4F07048807A
:10391000A1E0D448808845F21051884210D14FF47C
:103920003050D04908814FF4285048814FF42C5032
:1039300088814FF4F07008804FF4487048808AE026
:10394000C848808841F6631188420DD12C20C549B2
:1039500008812B2048812A2088814FF4F07008804C
:103960004FF44870488076E02220BE49088120202C
:103970004881212088816EE00120BA4988714FF486
:10398000A0700880F02048800846808849F24131C4
:10399000884205D0B348808845F21031884207D16B
:1039A0002C20B04908812A2048812B2088813FE0C3
:1039B000AC48808846F60401884207D12C20A949EA
:1039C00008812B2048812A20888131E0A548808801
:1039D00045F21051884210D14FF43050A14908816E
:1039E0004FF4285048814FF42C5088814FF4487090
:1039F00008804FF4F07048801AE09A48808841F6B9
:103A0000631188420DD12C20964908812A204881D3
:103A10002B2088814FF4487008804FF4F070488064
:103A200006E022208F4908812120488120208881BA
:103A30008C48808846F60401884205D089488088F1
:103A400045F21031884206D14FF4F0708549088064
:103A50004FF4A07048800020FFF7BDFA10BD2DE99B
:103A6000F04F86B004460D469046994604EB080098
:103A7000401E86B205EB0900401E87B27948808857
:103A800049F24131884215D07648808845F210319C
:103A900088420FD07348808846F60401884209D0D6
:103AA0007048807901287BD16E48808841F6631187
:103AB000884275D16B494889FEF7C6FE4FF4807085
:103AC000664908614000486120126549086080200D
:103AD0006249486108618000086140100861400047
:103AE0004861E0B25E49086080205C494861086135
:103AF0008000086140100861400048613012584958
:103B000008608020554948610861800008614010C4
:103B1000086140004861F0B25149086080204F4977
:103B200048610861800008614E498889FEF78CFE73
:103B30004FF48070494908614000486128124849A3
:103B40000860802045494861086180000861401094
:103B5000086140004861E8B24149086080203F495F
:103B600048610861800008614010086140004861B8
:103B700038123B490860802038494861086180005C
:103B800008614010086140004861F8B2344908609B
:103B900080203249486108618000086177E1FFE7D1
:103BA0003048808841F6631188427DD12D480088D5
:103BB000A0EB0800001B84B205EB0900401E1FFAB1
:103BC00080F928494889FEF73FFE4FF48070234969
:103BD00008614000486120122149086080201F4987
:103BE0004861086180000861401008614000486138
:103BF000E0B21B49086080201849486108618000D4
:103C00000861401008614000486104EB0800401E54
:103C10000012134908608020104948610861800043
:103C20000861401008614000486104EB0800401E34
:103C3000C0B20B49086080200849486108618000D3
:103C4000086108498889FEF7FFFD4FF48070034939
:103C50000861400048612812014905E00010014058
:103C60000C0C01401801002008608020FE494861CA
:103C70000861800008614010086140004861E8B2B6
:103C8000FA4908608020F8494861086180000861AD
:103C900040100861400048614FEA2920F34908605C
:103CA0008020F149486100E011E00861800008616E
:103CB000401008614000486109F0FF00EB490860CE
:103CC0008020E9494861086180000861DFE0E84838
:103CD000808845F2105188427ED1E5494889FEF737
:103CE000B3FD4FF48070E049086140004861201244
:103CF000DE4908608020DC49486108618000086175
:103D0000DB494989491C88B2FEF79EFD4FF480705B
:103D1000D549086140004861E0B2D449086080207C
:103D2000D1494861086180000861D1494989891CED
:103D300088B2FEF789FD4FF48070CB4908614000DE
:103D400048613012C94908608020C749486108614C
:103D500080000861C6494989C91C88B2FEF774FD14
:103D60004FF48070C049086140004861F0B2BF491B
:103D700008608020BC494861086180000861BC4936
:103D80008889FEF761FD4FF48070B74908614000F3
:103D900048612812B54908608020B349486108612C
:103DA00080000861B2498989491C88B2FEF74CFD40
:103DB0004FF48070AC49086140004861E8B2AB49FB
:103DC00008608020A8494861086180000861A8490E
:103DD0008989891C88B200E026E0FEF735FD4FF4A2
:103DE0008070A14908614000486138129F4908600D
:103DF00080209D4948610861800008619C4989894B
:103E0000C91C88B2FEF720FD4FF480709649086106
:103E100040004861F8B295490860802092494861A5
:103E200008618000086132E09148807901280ED154
:103E3000AA46BB468E480088801B401E80B2019077
:103E40008B480088001B401E80B2009003E0A24611
:103E5000B3460195009750200590512004905220C0
:103E600003905320029051460598FEF73AFD5946BB
:103E70000498FEF736FD01990398FEF732FD00998C
:103E80000298FEF72EFD29462046FEF76EFD06B08D
:103E9000BDE8F08F70B50446002675480588408857
:103EA00045437348808846F60401884216D170481D
:103EB0008079012812D100206D4988712A2048811B
:103EC0002B20888100210846FEF74FFD012068491C
:103ED00088712B2048812A20888103E00021084630
:103EE000FEF743FDFEF719FD00260DE04FF480704C
:103EF0005D490861400048615C4804608020486179
:103F0000086180000861761CAE42EFD370BD08B531
:103F10004FF41650FEF707FC01211920FDF7FAF9BE
:103F200001215448FDF70BF84FF4F860ADF800009C
:103F300010208DF8030003208DF8020069464A48DE
:103F4000FCF72CFF4FF4F8614748FCF7D4FF4FF61D
:103F5000FF70ADF80000694644480C38FCF71EFFBE
:103F60004FF6FF7141480C38FCF7C5FF3220FEF7D1
:103F70008FFB01210020FEF7B4FC3220FEF788FB06
:103F80000020FEF7C2FC3A49888008468088FF2856
:103F90000ADB084680884FF6FF71884204D0344817
:103FA0008088B0F5134F5ED1D320FEF74DFCFEF7AD
:103FB00067FCFEF765FCFEF763FC2D498880084628
:103FC00080884FF6FF7101EA002029498880FEF7BA
:103FD00057FC2749898808432549888008468088F6
:103FE00049F2413188423ED0BF20FEF72DFCFEF75A
:103FF00047FCFEF745FCFEF743FCFEF741FC1C497D
:104000008880084680884FF6FF7101EA0020184931
:104010008880FEF735FC1649898808431449888052
:104020000846808846F6040188427CD0D420FEF7FA
:104030000BFCFEF725FCFEF723FCFEF721FC0C49E8
:104040008880084680884FF6FF7101EA0020084901
:104050008880FEF715FC0649898808430449888052
:104060000846808808E05EE0001001400C0C01402A
:10407000180100200002300045F21031884252D071
:104080004FF45A40FEF7E0FBFEF7FAFB4FF45B40BB
:10409000FEF7DAFBFEF7F4FBFE49888008468088CD
:1040A0004FF6FF7101EA0020FA4988804FF45C4026
:1040B000FEF7CAFBFEF7E4FBF64989880843F54999
:1040C000888008468088B0F5004F02D145F2105034
:1040D0008880F048808845F21051884223D0A12082
:1040E000FEF7B2FBFEF7CCFBEA498880FEF7C8FB7F
:1040F000E8498880084680884FF6FF7101EA002071
:10410000E4498880FEF7BCFBE24989880843E1491D
:1041100088800846808845F26171884203D141F663
:104120006310DC498880DB488188DBA004F040FC18
:10413000D848808849F2413188427CD1CF20FEF7AF
:1041400083FB0020FEF78EFBC120FEF78BFB3020A7
:10415000FEF788FBED20FEF777FB6420FEF782FB7D
:104160000320FEF77FFB1220FEF77CFB8120FEF789
:1041700079FBE820FEF768FB8520FEF773FB102033
:10418000FEF770FB7A20FEF76DFBCB20FEF75CFBA1
:104190003920FEF767FB2C20FEF764FB0020FEF7BA
:1041A00061FB3420FEF75EFB0220FEF75BFBF7208D
:1041B000FEF74AFB2020FEF755FBEA20FEF744FB02
:1041C0000020FEF74FFB0020FEF74CFBC020FEF75F
:1041D0003BFB1B20FEF746FBC120FEF735FB012011
:1041E000FEF740FBC520FEF72FFB3020FEF73AFB21
:1041F0003020FEF737FBC720FEF726FBB720FEF77F
:1042000031FB3620FEF720FB4820FEF72BFB3A203F
:10421000FEF71AFB5520FEF725FBB120FEF714FB35
:104220000020FEF71FFB1A20FEF71CFBB620FEF74E
:104230000BFB0A2000E099E0FEF714FBA220FEF73A
:1042400011FBF220FEF700FB0020FEF70BFB2620FF
:10425000FEF7FAFA0120FEF705FBE020FEF7F4FA7C
:104260000F20FEF7FFFA2A20FEF7FCFA2820FEF7BF
:10427000F9FA0820FEF7F6FA0E20FEF7F3FA082006
:10428000FEF7F0FA5420FEF7EDFAA920FEF7EAFA5D
:104290004320FEF7E7FA0A20FEF7E4FA0F20FEF7C4
:1042A000E1FA0020FEF7DEFA0020FEF7DBFA00203C
:1042B000FEF7D8FA0020FEF7D5FAE120FEF7C4FA9F
:1042C0000020FEF7CFFA1520FEF7CCFA1720FEF7F4
:1042D000C9FA0720FEF7C6FA1120FEF7C3FA062036
:1042E000FEF7C0FA2B20FEF7BDFA5620FEF7BAFA09
:1042F0003C20FEF7B7FA0520FEF7B4FA1020FEF7CF
:10430000B1FA0F20FEF7AEFA3F20FEF7ABFA3F20DE
:10431000FEF7A8FA0F20FEF7A5FA2B20FEF794FA75
:104320000020FEF79FFA0020FEF79CFA0120FEF71E
:1043300099FA3F20FEF796FA2A20FEF785FA002028
:10434000FEF790FA0020FEF78DFA0020FEF78AFAB9
:10435000EF20FEF787FA1120FEF776FA7820FEF7B5
:1043600097F92920FEF770FA03F0A5BB4948808829
:1043700046F6040188427CD11120FEF765FA14202C
:10438000FEF786F9D020FEF75FFA0720FEF76AFAFB
:104390004220FEF767FA1D20FEF764FAD120FEF7EF
:1043A00053FA0020FEF75EFA1A20FEF75BFA0920A6
:1043B000FEF758FAD220FEF747FA0120FEF752FA2C
:1043C0002220FEF74FFAC020FEF73EFA1020FEF73B
:1043D00049FA3B20FEF746FA0020FEF743FA022096
:1043E000FEF740FA1120FEF73DFAC520FEF72CFA41
:1043F0000320FEF737FAC820FEF726FA0020FEF762
:1044000031FA2520FEF72EFA2120FEF72BFA05209F
:10441000FEF728FA0020FEF725FA0A20FEF722FA16
:104420006520FEF71FFA2520FEF71CFA7720FEF71D
:1044300019FA5020FEF716FA0F20FEF713FA0020A3
:10444000FEF710FAF820FEF7FFF90120FEF70AFA4E
:10445000FE20FEF7F9F90020FEF704FA0220FEF72D
:1044600001FA2020FEF7F0F93620FEF7EDF90820DA
:1044700000E037E0FEF7F6F93A20FEF7E5F95520BF
:10448000FEF7F0F92B20FEF7DFF90020FEF7EAF93E
:10449000002009E018010020204C43442049443A00
:1044A00025780D0A00000000FEF7DCF90120FEF778
:1044B000D9F93F20FEF7D6F92A20FEF7C5F90020EA
:1044C000FEF7D0F90020FEF7CDF90120FEF7CAF97A
:1044D000DF20FEF7C7F97820FEF7DAF82920FEF78B
:1044E000B3F941E7FE48808845F21031884240F038
:1044F0007C87ED20FEF7A8F90120FEF7B3F9FE2036
:10450000FEF7B0F9EE20FEF79FF9DE20FEF7AAF9DC
:104510002120FEF7A7F9F120FEF796F90120FEF71A
:10452000A1F9DF20FEF790F91020FEF79BF9C420D7
:10453000FEF78AF98F20FEF795F9C620FEF784F979
:104540000020FEF78FF9E220FEF78CF9E220FEF75B
:1045500089F9E220FEF786F9BF20FEF775F9AA2057
:10456000FEF780F9B020FEF76FF90D20FEF77AF91B
:104570000020FEF777F90D20FEF774F90020FEF712
:1045800071F91120FEF76EF90020FEF76BF9192082
:10459000FEF768F90020FEF765F92120FEF762F9C1
:1045A0000020FEF75FF92D20FEF75CF90020FEF7F2
:1045B00059F93D20FEF756F90020FEF753F95D202A
:1045C000FEF750F90020FEF74DF95D20FEF74AF99D
:1045D0000020FEF747F9B120FEF736F98020FEF7FC
:1045E00041F90020FEF73EF98B20FEF73BF9002051
:1045F000FEF738F99620FEF735F90020FEF732F97C
:10460000B220FEF721F90020FEF72CF90020FEF77A
:1046100029F90220FEF726F90020FEF723F90320EE
:10462000FEF720F90020FEF71DF9B320FEF70CF984
:104630000020FEF717F90020FEF714F90020FEF71E
:1046400011F90020FEF70EF90020FEF70BF900200B
:10465000FEF708F90020FEF705F90020FEF702F941
:104660000020FEF7FFF80020FEF7FCF80020FEF720
:10467000F9F80020FEF7F6F80020FEF7F3F8002026
:10468000FEF7F0F80020FEF7EDF80020FEF7EAF85C
:104690000020FEF7E7F80020FEF7E4F80020FEF720
:1046A000E1F80020FEF7DEF80020FEF7DBF800203E
:1046B000FEF7D8F80020FEF7D5F80020FEF7D2F874
:1046C000B420FEF7C1F88B20FEF7CCF80020FEF7EF
:1046D000C9F89620FEF7C6F80020FEF7C3F8A1201F
:1046E000FEF7C0F80020FEF7BDF8B520FEF7ACF8E5
:1046F0000220FEF7B7F80020FEF7B4F80320FEF71B
:10470000B1F80020FEF7AEF80420FEF7ABF8002069
:10471000FEF7A8F8B620FEF797F80020FEF7A2F8FB
:104720000020FEF79FF8B720FEF78EF80020FEF776
:1047300099F80020FEF796F83F20FEF793F8002046
:10474000FEF790F85E20FEF78DF80020FEF78AF85D
:104750006420FEF787F80020FEF784F88C20FEF72F
:1047600081F80020FEF77EF8AC20FEF77BF80020F1
:10477000FEF778F8DC20FEF775F80020FEF772F8F7
:104780007020FEF76FF80020FEF76CF89020FEF71F
:1047900069F80020FEF766F8EB20FEF763F80020CA
:1047A000FEF760F8DC20FEF75DF80020FEF75AF80F
:1047B000B820FEF749F80020FEF754F80020FEF775
:1047C00051F80020FEF74EF80020FEF74BF80020CD
:1047D000FEF748F80020FEF745F80020FEF742F803
:1047E0000020FEF73FF8BA20FEF72EF82420FEF74F
:1047F00039F80020FEF736F80020FEF733F80020E5
:10480000FEF730F8C120FEF71FF82020FEF72AF847
:104810000020FEF727F85420FEF724F80020FEF7CA
:1048200021F8FF20FEF71EF80020FEF71BF8C2203B
:10483000FEF70AF80A20FEF715F80020FEF712F836
:104840000420FEF70FF80020FEF70CF8C320FDF758
:10485000FBFF3C20FEF706F80020FEF703F83A20A5
:10486000FEF700F80020FDF7FDFF3920FDF7FAFF05
:104870000020FDF7F7FF3720FDF7F4FF0020FDF7DC
:10488000F1FF3C20FDF7EEFF0020FDF7EBFF3620A7
:10489000FDF7E8FF0020FDF7E5FF3220FDF7E2FF1E
:1048A0000020FDF7DFFF2F20FDF7DCFF0020FDF7E4
:1048B000D9FF2C20FDF7D6FF0020FDF7D3FF2920DC
:1048C000FDF7D0FF0020FDF7CDFF2620FDF7CAFF42
:1048D0000020FDF7C7FF2420FDF7C4FF002001E002
:1048E00018010020FDF7BEFF2420FDF7BBFF0020CC
:1048F000FDF7B8FF2320FDF7B5FF0020FDF7B2FF5D
:104900003C20FDF7AFFF0020FDF7ACFF3620FDF7A0
:10491000A9FF0020FDF7A6FF3220FDF7A3FF00202E
:10492000FDF7A0FF2F20FDF79DFF0020FDF79AFF68
:104930002C20FDF797FF0020FDF794FF2920FDF7BD
:1049400091FF0020FDF78EFF2620FDF78BFF002052
:10495000FDF788FF2420FDF785FF0020FDF782FF8B
:104960002420FDF77FFF0020FDF77CFF2320FDF7CB
:1049700079FF0020FDF776FFC420FDF765FF622078
:10498000FDF770FF0020FDF76DFF0520FDF76AFFC2
:104990000020FDF767FF8420FDF764FF0020FDF78E
:1049A00061FFF020FDF75EFF0020FDF75BFF1820A0
:1049B000FDF758FF0020FDF755FFA420FDF752FF3B
:1049C0000020FDF74FFF1820FDF74CFF0020FDF7FA
:1049D00049FF5020FDF746FF0020FDF743FF0C2064
:1049E000FDF740FF0020FDF73DFF1720FDF73AFFE0
:1049F0000020FDF737FF9520FDF734FF0020FDF77D
:104A000031FFF320FDF72EFF0020FDF72BFFE620FE
:104A1000FDF728FF0020FDF725FFC520FDF714FF57
:104A20003220FDF71FFF0020FDF71CFF4420FDF79B
:104A300019FF0020FDF716FF6520FDF713FF00208A
:104A4000FDF710FF7620FDF70DFF0020FDF70AFFB0
:104A50008820FDF707FF0020FDF704FFC620FDF7C3
:104A6000F3FE2020FDF7FEFE0020FDF7FBFE1720E1
:104A7000FDF7F8FE0020FDF7F5FE0120FDF7F2FE40
:104A80000020FDF7EFFEC720FDF7DEFE0020FDF75A
:104A9000E9FE0020FDF7E6FE0020FDF7E3FE002022
:104AA000FDF7E0FEC820FDF7CFFE0020FDF7DAFE9F
:104AB0000020FDF7D7FE0020FDF7D4FE0020FDF713
:104AC000D1FEC920FDF7C0FE0020FDF7CBFE00207F
:104AD000FDF7C8FE0020FDF7C5FE0020FDF7C2FE71
:104AE0000020FDF7BFFE0020FDF7BCFE0020FDF713
:104AF000B9FE0020FDF7B6FE0020FDF7B3FE002052
:104B0000FDF7B0FE0020FDF7ADFE0020FDF7AAFE88
:104B10000020FDF7A7FE0020FDF7A4FE0020FDF712
:104B2000A1FE0020FDF79EFEE020FDF78DFE162081
:104B3000FDF798FE0020FDF795FE1C20FDF792FE84
:104B40000020FDF78FFE2120FDF78CFE0020FDF7F1
:104B500089FE3620FDF786FE0020FDF783FE462005
:104B6000FDF780FE0020FDF77DFE5220FDF77AFE66
:104B70000020FDF777FE6420FDF774FE0020FDF7AE
:104B800071FE7A20FDF76EFE0020FDF76BFE8B2094
:104B9000FDF768FE0020FDF765FE9920FDF762FE37
:104BA0000020FDF75FFEA820FDF75CFE0020FDF76A
:104BB00059FEB920FDF756FE0020FDF753FEC42034
:104BC000FDF750FE0020FDF74DFECA20FDF74AFE1E
:104BD0000020FDF747FED220FDF744FE0020FDF740
:104BE00041FED920FDF73EFE0020FDF73BFEE02010
:104BF000FDF738FE0020FDF735FEF320FDF732FE0D
:104C00000020FDF72FFEE120FDF71EFE1620FDF728
:104C100029FE0020FDF726FE1C20FDF723FE0020C4
:104C2000FDF720FE2220FDF71DFE0020FDF71AFEF5
:104C30003620FDF717FE0020FDF714FE4520FDF796
:104C400011FE0020FDF70EFE5220FDF70BFE0020A6
:104C5000FDF708FE6420FDF705FE0020FDF702FECB
:104C60007A20FDF7FFFD0020FDF7FCFD8B20FDF70E
:104C7000F9FD0020FDF7F6FD9920FDF7F3FD00207A
:104C8000FDF7F0FDA820FDF7EDFD0020FDF7EAFDA2
:104C9000B920FDF7E7FD0020FDF7E4FDC420FDF796
:104CA000E1FD0020FDF7DEFDCA20FDF7DBFD002061
:104CB000FDF7D8FDD220FDF7D5FD0020FDF7D2FD90
:104CC000D820FDF7CFFD0020FDF7CCFDE020FDF75B
:104CD000C9FD0020FDF7C6FDF320FDF7C3FD002050
:104CE000FDF7C0FDE220FDF7AFFD0520FDF7BAFDA1
:104CF0000020FDF7B7FD0B20FDF7B4FD0020FDF708
:104D0000B1FD1B20FDF7AEFD0020FDF7ABFD34200B
:104D1000FDF7A8FD0020FDF7A5FD4420FDF7A2FD4D
:104D20000020FDF79FFD4F20FDF79CFD0020FDF7C3
:104D300099FD6120FDF796FD0020FDF793FD792098
:104D4000FDF790FD0020FDF78DFD8820FDF78AFD21
:104D50000020FDF787FD9720FDF784FD0020FDF77B
:104D600081FDA620FDF77EFD0020FDF77BFDB7202D
:104D7000FDF778FD0020FDF775FDC220FDF772FDFF
:104D80000020FDF76FFDC720FDF76CFD0020FDF74B
:104D900069FDD120FDF766FD0020FDF763FDD620FB
:104DA000FDF760FD0020FDF75DFDDD20FDF75AFDFC
:104DB0000020FDF757FDF320FDF754FD0020FDF71F
:104DC00051FDE320FDF740FD0520FDF74BFD0020E0
:104DD000FDF748FD0A20FDF745FD0020FDF742FDE7
:104DE0001C20FDF73FFD0020FDF73CFD3320FDF7C3
:104DF00039FD0020FDF736FD4420FDF733FD00208E
:104E0000FDF730FD5020FDF72DFD0020FDF72AFDB8
:104E10006220FDF727FD0020FDF724FD7820FDF737
:104E200021FD0020FDF71EFD8820FDF71BFD002061
:104E3000FDF718FD9720FDF715FD0020FDF712FD89
:104E4000A620FDF70FFD0020FDF70CFDB720FDF7B4
:104E500009FD0020FDF706FDC220FDF703FD00203F
:104E6000FDF700FDC720FDF7FDFC0020FDF7FAFC73
:104E7000D120FDF7F7FC0020FDF7F4FCD520FDF76D
:104E8000F1FC0020FDF7EEFCDD20FDF7EBFC00203F
:104E9000FDF7E8FCF320FDF7E5FC0020FDF7E2FC60
:104EA000E420FDF7D1FC0120FDF7DCFC0020FDF73C
:104EB000D9FC0120FDF7D6FC0020FDF7D3FC022031
:104EC000FDF7D0FC0020FDF7CDFC2A20FDF7CAFC41
:104ED0000020FDF7C7FC3C20FDF7C4FC0020FDF7D7
:104EE000C1FC4B20FDF7BEFC0020FDF7BBFC5D20A4
:104EF000FDF7B8FC0020FDF7B5FC7420FDF7B2FC0F
:104F00000020FDF7AFFC8420FDF7ACFC0020FDF78E
:104F1000A9FC9320FDF7A6FC0020FDF7A3FCA2202E
:104F2000FDF7A0FC0020FDF79DFCB320FDF79AFCE7
:104F30000020FDF797FCBE20FDF794FC0020FDF754
:104F400091FCC420FDF78EFC0020FDF78BFCCD20EA
:104F5000FDF788FC0020FDF785FCD320FDF782FCDF
:104F60000020FDF77FFCDD20FDF77CFC0020FDF735
:104F700079FCF320FDF776FC0020FDF773FCE520BB
:104F8000FDF762FC0020FDF76DFC0020FDF76AFCD8
:104F90000020FDF767FC0020FDF764FC0220FDF710
:104FA00061FC0020FDF75EFC2920FDF75BFC002082
:104FB000FDF758FC3C20FDF755FC0020FDF752FCA6
:104FC0004B20FDF74FFC0020FDF74CFC5D20FDF76A
:104FD00049FC0020FDF746FC7420FDF743FC00204F
:104FE000FDF740FC8420FDF73DFC0020FDF73AFC76
:104FF0009320FDF737FC0020FDF734FCA220FDF7DD
:1050000031FC0020FDF72EFCB320FDF72BFC002027
:10501000FDF728FCBE20FDF725FC0020FDF722FC53
:10502000C420FDF71FFC0020FDF71CFCCD20FDF780
:1050300019FC0020FDF716FCD320FDF713FC00201F
:10504000FDF710FCDC20FDF70DFC0020FDF70AFC4D
:10505000F320FDF707FC0020FDF704FCE620FDF738
:10506000F3FB1120FDF7FEFB0020FDF7FBFB3420D6
:10507000FDF7F8FB0020FDF7F5FB5620FDF7F2FBEE
:105080000020FDF7EFFB7620FDF7ECFB0020FDF79D
:10509000E9FB7720FDF7E6FB0020FDF7E3FB662048
:1050A000FDF7E0FB0020FDF7DDFB8820FDF7DAFBD4
:1050B0000020FDF7D7FB9920FDF7D4FB0020FDF77A
:1050C000D1FBBB20FDF7CEFB0020FDF7CBFB9920E9
:1050D000FDF7C8FB0020FDF7C5FB6620FDF7C2FB0E
:1050E0000020FDF7BFFB5520FDF7BCFB0020FDF7BE
:1050F000B9FB5520FDF7B6FB0020FDF7B3FB4520BB
:10510000FDF7B0FB0020FDF7ADFB4320FDF7AAFB48
:105110000020FDF7A7FB4420FDF7A4FB0020FDF7CE
:10512000A1FBE720FDF790FB3220FDF79BFB002061
:10513000FDF798FB5520FDF795FB0020FDF792FB4E
:105140007620FDF78FFB0020FDF78CFB6620FDF736
:1051500089FB0020FDF786FB6720FDF783FB00201D
:10516000FDF780FB6720FDF77DFB0020FDF77AFB54
:105170008720FDF777FB0020FDF774FB9920FDF7F2
:1051800071FB0020FDF76EFBBB20FDF76BFB0020E1
:10519000FDF768FB9920FDF765FB0020FDF762FB3A
:1051A0007720FDF75FFB0020FDF75CFB4420FDF757
:1051B00059FB0020FDF756FB5620FDF753FB00205E
:1051C000FDF750FB2320FDF74DFB0020FDF74AFBC8
:1051D0003320FDF747FB0020FDF744FB4520FDF79A
:1051E00041FB0020FDF73EFBE820FDF72DFB0020F2
:1051F000FDF738FB0020FDF735FB9920FDF732FB6A
:105200000020FDF72FFB8720FDF72CFB0020FDF78A
:1052100029FB8820FDF726FB0020FDF723FB7720E4
:10522000FDF720FB0020FDF71DFB6620FDF71AFBB4
:105230000020FDF717FB8820FDF714FB0020FDF789
:1052400011FBAA20FDF70EFB0020FDF70BFBBB2096
:10525000FDF708FB0020FDF705FB9920FDF702FB99
:105260000020FDF7FFFA6620FDF7FCFA0020FDF7AD
:10527000F9FA5520FDF7F6FA0020FDF7F3FA55206C
:10528000FDF7F0FA0020FDF7EDFA4420FDF7EAFA09
:105290000020FDF7E7FA4420FDF7E4FA0020FDF7CF
:1052A000E1FA5520FDF7DEFA0020FDF7DBFAE920F0
:1052B000FDF7CAFAAA20FDF7D5FA0020FDF7D2FAC9
:1052C0000020FDF7CFFA0020FDF7CCFA0020FDF713
:1052D000BBFAAA20FDF7C6FACF20FDF7B5FA0020E9
:1052E000FDF7C0FA0020FDF7BDFA0020FDF7BAFA7D
:1052F0000020FDF7B7FA0020FDF7B4FA0020FDF713
:10530000B1FA0020FDF7AEFA0020FDF7ABFA00205D
:10531000FDF7A8FA0020FDF7A5FA0020FDF7A2FA94
:105320000020FDF79FFA0020FDF79CFA0020FDF712
:1053300099FA0020FDF796FA0020FDF793FA002075
:10534000FDF790FAF020FDF77FFA0020FDF78AFACA
:105350005020FDF787FA0020FDF784FA0020FDF7C2
:1053600081FA0020FDF77EFAF320FDF76DFA0020A8
:10537000FDF778FAF920FDF767FA0620FDF772FAD3
:105380001020FDF76FFA2920FDF76CFA0020FDF7D9
:1053900069FA3A20FDF758FA5520FDF763FA112013
:1053A000FDF752FA6420FDF773F92920FDF74CFA56
:1053B0003520FDF749FA0020FDF754FA5120FDF79A
:1053C00043FAFF20FDF74EFA5320FDF73DFA2C205B
:1053D000FDF748FA5520FDF737FA8220FDF742FA2B
:1053E0002C20FDF731FA02F066BBFE48808845F2BA
:1053F000105188427ED155214FF47040FDF771FA6B
:10540000AA214FF20100FDF76CFA52214FF202007F
:10541000FDF767FA08214FF20300FDF762FA012158
:105420004FF20400FDF75DFA0D214FF43040FDF717
:1054300058FA0D214BF20100FDF753FA0D214BF202
:105440000200FDF74EFA34214FF43640FDF749FAD9
:1054500034214BF20160FDF744FA34214BF2026033
:10546000FDF73FFA0D214FF43140FDF73AFA0D21D7
:105470004BF20110FDF735FA0D214BF20210FDF74A
:1054800030FA34214FF43740FDF72BFA34214BF238
:105490000170FDF726FA34214BF20270FDF721FA74
:1054A00000214FF43240FDF71CFA00214BF201209D
:1054B000FDF717FA00214BF20220FDF712FA242122
:1054C0004FF43840FDF70DFA24214BF60100FDF7AB
:1054D00008FA24214BF60200FDF703FA01214FF4EC
:1054E0003F40FDF7FEF90F214FF43340FDF7F9F986
:1054F0000F2100E0FEE34BF20130FDF7F2F90F213E
:105500004BF20230FDF7EDF934214FF43940FDF74D
:10551000E8F934214BF60110FDF7E3F934214BF69D
:105520000210FDF7DEF908214FF43540FDF7D9F9F7
:1055300008214BF20150FDF7D4F908214BF202503B
:10554000FDF7CFF903214FF44240FDF7CAF92421BA
:105550004FF43A40FDF7C5F924214BF60120FDF741
:10556000C0F924214BF60220FDF7BBF900214FF4CE
:105570003C40FDF7B6F978214BF60140FDF7B1F953
:1055800000214BF60240FDF7ACF900214FF43D40FD
:10559000FDF7A7F978214BF60150FDF7A2F900219C
:1055A0004BF60250FDF79DF900214FF43E40FDF708
:1055B00098F964214BF60160FDF793F900214FF44F
:1055C0005140FDF78EF933214DF20110FDF789F9B5
:1055D00000214DF20210FDF784F934214DF2031041
:1055E000FDF77FF900214DF20410FDF77AF93A2119
:1055F0004DF20510FDF775F900214DF20610FDF78B
:1056000070F94A214DF20710FDF76BF900214DF2B8
:105610000810FDF766F95C214DF20910FDF761F9FC
:1056200000214DF20A10FDF75CF981214DF20B10BB
:10563000FDF757F900214DF20C10FDF752F9A621A4
:105640004DF20D10FDF74DF900214DF20E10FDF752
:1056500048F9E5214DF20F10FDF743F901214DF214
:105660001010FDF73EF913214DF21110FDF739F935
:1056700001214DF21210FDF734F954214DF21310AF
:10568000FDF72FF901214DF21410FDF72AF98221BF
:105690004DF21510FDF725F901214DF21610FDF719
:1056A00020F9CA214DF21710FDF71BF902214DF226
:1056B0001810FDF716F900214DF21910FDF711F938
:1056C00002214DF21A10FDF70CF901214DF21B10C9
:1056D000FDF707F902214DF21C10FDF702F9342104
:1056E0004DF21D10FDF7FDF802214DF21E10FDF7E1
:1056F000F8F867214DF21F10FDF7F3F802214DF283
:105700002010FDF7EEF884214DF22110FDF7E9F8A5
:1057100002214DF22210FDF7E4F8A4214DF22310EE
:10572000FDF7DFF802214DF22410FDF7DAF8B7217A
:105730004DF22510FDF7D5F802214DF22610FDF7A8
:10574000D0F8CF214DF22710FDF7CBF802214DF212
:105750002810FDF7C6F8DE214DF22910FDF7C1F83B
:1057600002214DF22A10FDF7BCF8F2214DF22B1068
:10577000FDF7B7F802214DF22C10FDF7B2F8FE212B
:105780004DF22D10FDF7ADF803214DF22E10FDF76F
:10579000A8F810214DF22F10FDF7A3F803214DF2C8
:1057A0003010FDF79EF833214DF23110FDF799F8D6
:1057B00003214DF23210FDF794F86D214DF23310B4
:1057C000FDF78FF800214FF45240FDF78AF833219E
:1057D0004DF20120FDF785F800214DF20220FDF782
:1057E00080F801E01801002034214DF20320FDF77C
:1057F00078F800214DF20420FDF773F83A214DF2BC
:105800000520FDF76EF800214DF20620FDF769F83E
:105810004A214DF20720FDF764F800214DF20820DF
:10582000FDF75FF85C214DF20920FDF75AF80021E1
:105830004DF20A20FDF755F881214DF20B20FDF7BE
:1058400050F800214DF20C20FDF74BF8A6214DF247
:105850000D20FDF746F800214DF20E20FDF741F82E
:10586000E5214DF20F20FDF73CF801214DF210200B
:10587000FDF737F813214DF21120FDF732F8012121
:105880004DF21220FDF72DF854214DF21320FDF7B3
:1058900028F801214DF21420FDF723F882214DF262
:1058A0001520FDF71EF801214DF21620FDF719F81D
:1058B000CA214DF21720FDF714F802214DF21820ED
:1058C000FDF70FF800214DF21920FDF70AF802212B
:1058D0004DF21A20FDF705F801214DF21B20FDF7CE
:1058E00000F802214DF21C20FCF7FBFF34214DF2A1
:1058F0001D20FCF7F6FF02214DF21E20FCF7F1FF00
:1059000067214DF21F20FCF7ECFF02214DF2202011
:10591000FCF7E7FF84214DF22120FCF7E2FF022192
:105920004DF22220FCF7DDFFA4214DF22320FCF7ED
:10593000D8FF02214DF22420FCF7D3FFB7214DF20E
:105940002520FCF7CEFF02214DF22620FCF7C9FFEF
:10595000CF214DF22720FCF7C4FF02214DF2282071
:10596000FCF7BFFFDE214DF22920FCF7BAFF022130
:105970004DF22A20FCF7B5FFF2214DF22B20FCF767
:10598000B0FF02214DF22C20FCF7ABFFFE214DF2BF
:105990002D20FCF7A6FF03214DF22E20FCF7A1FFDE
:1059A00010214DF22F20FCF79CFF03214DF23020F7
:1059B000FCF797FF33214DF23120FCF792FF0321D2
:1059C0004DF23220FCF78DFF6D214DF23320FCF7B4
:1059D00088FF00214FF45340FCF783FF33214DF241
:1059E0000130FCF77EFF00214DF20230FCF779FF19
:1059F00034214DF20330FCF774FF00214DF20430E6
:105A0000FCF76FFF3A214DF20530FCF76AFF0021E9
:105A10004DF20630FCF765FF4A214DF20730FCF7E6
:105A200060FF00214DF20830FCF75BFF5C214DF276
:105A30000930FCF756FF00214DF20A30FCF751FF08
:105A400081214DF20B30FCF74CFF00214DF20C3060
:105A5000FCF747FFA6214DF20D30FCF742FF002175
:105A60004DF20E30FCF73DFFE5214DF20F30FCF713
:105A700038FF01214DF21030FCF733FF13214DF2B6
:105A80001130FCF72EFF01214DF21230FCF729FFF7
:105A900054214DF21330FCF724FF01214DF2143054
:105AA000FCF71FFF82214DF21530FCF71AFF012190
:105AB0004DF21630FCF715FFCA214DF21730FCF7F6
:105AC00010FF02214DF21830FCF70BFF00214DF2C0
:105AD0001930FCF706FF02214DF21A30FCF701FFE6
